{
  "contractName": "AttendanceNFT",
  "abi": [
    {
      "inputs": [],
      "stateMutability": "nonpayable",
      "type": "constructor"
    },
    {
      "inputs": [
        {
          "internalType": "address",
          "name": "sender",
          "type": "address"
        },
        {
          "internalType": "uint256",
          "name": "tokenId",
          "type": "uint256"
        },
        {
          "internalType": "address",
          "name": "owner",
          "type": "address"
        }
      ],
      "name": "ERC721IncorrectOwner",
      "type": "error"
    },
    {
      "inputs": [
        {
          "internalType": "address",
          "name": "operator",
          "type": "address"
        },
        {
          "internalType": "uint256",
          "name": "tokenId",
          "type": "uint256"
        }
      ],
      "name": "ERC721InsufficientApproval",
      "type": "error"
    },
    {
      "inputs": [
        {
          "internalType": "address",
          "name": "approver",
          "type": "address"
        }
      ],
      "name": "ERC721InvalidApprover",
      "type": "error"
    },
    {
      "inputs": [
        {
          "internalType": "address",
          "name": "operator",
          "type": "address"
        }
      ],
      "name": "ERC721InvalidOperator",
      "type": "error"
    },
    {
      "inputs": [
        {
          "internalType": "address",
          "name": "owner",
          "type": "address"
        }
      ],
      "name": "ERC721InvalidOwner",
      "type": "error"
    },
    {
      "inputs": [
        {
          "internalType": "address",
          "name": "receiver",
          "type": "address"
        }
      ],
      "name": "ERC721InvalidReceiver",
      "type": "error"
    },
    {
      "inputs": [
        {
          "internalType": "address",
          "name": "sender",
          "type": "address"
        }
      ],
      "name": "ERC721InvalidSender",
      "type": "error"
    },
    {
      "inputs": [
        {
          "internalType": "uint256",
          "name": "tokenId",
          "type": "uint256"
        }
      ],
      "name": "ERC721NonexistentToken",
      "type": "error"
    },
    {
      "anonymous": false,
      "inputs": [
        {
          "indexed": true,
          "internalType": "address",
          "name": "owner",
          "type": "address"
        },
        {
          "indexed": true,
          "internalType": "address",
          "name": "approved",
          "type": "address"
        },
        {
          "indexed": true,
          "internalType": "uint256",
          "name": "tokenId",
          "type": "uint256"
        }
      ],
      "name": "Approval",
      "type": "event"
    },
    {
      "anonymous": false,
      "inputs": [
        {
          "indexed": true,
          "internalType": "address",
          "name": "owner",
          "type": "address"
        },
        {
          "indexed": true,
          "internalType": "address",
          "name": "operator",
          "type": "address"
        },
        {
          "indexed": false,
          "internalType": "bool",
          "name": "approved",
          "type": "bool"
        }
      ],
      "name": "ApprovalForAll",
      "type": "event"
    },
    {
      "anonymous": false,
      "inputs": [
        {
          "indexed": true,
          "internalType": "address",
          "name": "from",
          "type": "address"
        },
        {
          "indexed": true,
          "internalType": "address",
          "name": "to",
          "type": "address"
        },
        {
          "indexed": true,
          "internalType": "uint256",
          "name": "tokenId",
          "type": "uint256"
        }
      ],
      "name": "Transfer",
      "type": "event"
    },
    {
      "inputs": [
        {
          "internalType": "address",
          "name": "to",
          "type": "address"
        },
        {
          "internalType": "uint256",
          "name": "tokenId",
          "type": "uint256"
        }
      ],
      "name": "approve",
      "outputs": [],
      "stateMutability": "nonpayable",
      "type": "function"
    },
    {
      "inputs": [
        {
          "internalType": "address",
          "name": "owner",
          "type": "address"
        }
      ],
      "name": "balanceOf",
      "outputs": [
        {
          "internalType": "uint256",
          "name": "",
          "type": "uint256"
        }
      ],
      "stateMutability": "view",
      "type": "function",
      "constant": true
    },
    {
      "inputs": [
        {
          "internalType": "uint256",
          "name": "tokenId",
          "type": "uint256"
        }
      ],
      "name": "getApproved",
      "outputs": [
        {
          "internalType": "address",
          "name": "",
          "type": "address"
        }
      ],
      "stateMutability": "view",
      "type": "function",
      "constant": true
    },
    {
      "inputs": [
        {
          "internalType": "address",
          "name": "owner",
          "type": "address"
        },
        {
          "internalType": "address",
          "name": "operator",
          "type": "address"
        }
      ],
      "name": "isApprovedForAll",
      "outputs": [
        {
          "internalType": "bool",
          "name": "",
          "type": "bool"
        }
      ],
      "stateMutability": "view",
      "type": "function",
      "constant": true
    },
    {
      "inputs": [],
      "name": "name",
      "outputs": [
        {
          "internalType": "string",
          "name": "",
          "type": "string"
        }
      ],
      "stateMutability": "view",
      "type": "function",
      "constant": true
    },
    {
      "inputs": [
        {
          "internalType": "uint256",
          "name": "tokenId",
          "type": "uint256"
        }
      ],
      "name": "ownerOf",
      "outputs": [
        {
          "internalType": "address",
          "name": "",
          "type": "address"
        }
      ],
      "stateMutability": "view",
      "type": "function",
      "constant": true
    },
    {
      "inputs": [
        {
          "internalType": "address",
          "name": "from",
          "type": "address"
        },
        {
          "internalType": "address",
          "name": "to",
          "type": "address"
        },
        {
          "internalType": "uint256",
          "name": "tokenId",
          "type": "uint256"
        }
      ],
      "name": "safeTransferFrom",
      "outputs": [],
      "stateMutability": "nonpayable",
      "type": "function"
    },
    {
      "inputs": [
        {
          "internalType": "address",
          "name": "from",
          "type": "address"
        },
        {
          "internalType": "address",
          "name": "to",
          "type": "address"
        },
        {
          "internalType": "uint256",
          "name": "tokenId",
          "type": "uint256"
        },
        {
          "internalType": "bytes",
          "name": "data",
          "type": "bytes"
        }
      ],
      "name": "safeTransferFrom",
      "outputs": [],
      "stateMutability": "nonpayable",
      "type": "function"
    },
    {
      "inputs": [
        {
          "internalType": "address",
          "name": "operator",
          "type": "address"
        },
        {
          "internalType": "bool",
          "name": "approved",
          "type": "bool"
        }
      ],
      "name": "setApprovalForAll",
      "outputs": [],
      "stateMutability": "nonpayable",
      "type": "function"
    },
    {
      "inputs": [
        {
          "internalType": "bytes4",
          "name": "interfaceId",
          "type": "bytes4"
        }
      ],
      "name": "supportsInterface",
      "outputs": [
        {
          "internalType": "bool",
          "name": "",
          "type": "bool"
        }
      ],
      "stateMutability": "view",
      "type": "function",
      "constant": true
    },
    {
      "inputs": [],
      "name": "symbol",
      "outputs": [
        {
          "internalType": "string",
          "name": "",
          "type": "string"
        }
      ],
      "stateMutability": "view",
      "type": "function",
      "constant": true
    },
    {
      "inputs": [
        {
          "internalType": "address",
          "name": "from",
          "type": "address"
        },
        {
          "internalType": "address",
          "name": "to",
          "type": "address"
        },
        {
          "internalType": "uint256",
          "name": "tokenId",
          "type": "uint256"
        }
      ],
      "name": "transferFrom",
      "outputs": [],
      "stateMutability": "nonpayable",
      "type": "function"
    },
    {
      "inputs": [
        {
          "internalType": "address",
          "name": "recipient",
          "type": "address"
        },
        {
          "internalType": "string",
          "name": "metadata",
          "type": "string"
        }
      ],
      "name": "mintAttendance",
      "outputs": [
        {
          "internalType": "uint256",
          "name": "",
          "type": "uint256"
        }
      ],
      "stateMutability": "nonpayable",
      "type": "function"
    },
    {
      "inputs": [
        {
          "internalType": "uint256",
          "name": "tokenId",
          "type": "uint256"
        }
      ],
      "name": "getTokenMetadata",
      "outputs": [
        {
          "internalType": "string",
          "name": "",
          "type": "string"
        }
      ],
      "stateMutability": "view",
      "type": "function",
      "constant": true
    },
    {
      "inputs": [
        {
          "internalType": "uint256",
          "name": "tokenId",
          "type": "uint256"
        }
      ],
      "name": "tokenURI",
      "outputs": [
        {
          "internalType": "string",
          "name": "",
          "type": "string"
        }
      ],
      "stateMutability": "view",
      "type": "function",
      "constant": true
    },
    {
      "inputs": [
        {
          "internalType": "string",
          "name": "baseTokenURI",
          "type": "string"
        }
      ],
      "name": "setBaseTokenURI",
      "outputs": [],
      "stateMutability": "nonpayable",
      "type": "function"
    }
  ],
  "bytecode": "0x60806040523480156200001157600080fd5b506040518060400160405280600d81526020016c105d1d195b99185b98d9539195609a1b815250604051806040016040528060048152602001631053919560e21b815250816000908162000066919062000142565b50600162000075828262000142565b50506040805160208101909152600081526007915062000096908262000142565b506200020e565b634e487b7160e01b600052604160045260246000fd5b600181811c90821680620000c857607f821691505b602082108103620000e957634e487b7160e01b600052602260045260246000fd5b50919050565b601f8211156200013d57600081815260208120601f850160051c81016020861015620001185750805b601f850160051c820191505b81811015620001395782815560010162000124565b5050505b505050565b81516001600160401b038111156200015e576200015e6200009d565b62000176816200016f8454620000b3565b84620000ef565b602080601f831160018114620001ae5760008415620001955750858301515b600019600386901b1c1916600185901b17855562000139565b600085815260208120601f198616915b82811015620001df57888601518255948401946001909101908401620001be565b5085821015620001fe5787850151600019600388901b60f8161c191681555b5050505050600190811b01905550565b611380806200021e6000396000f3fe608060405234801561001057600080fd5b50600436106101005760003560e01c80636031680111610097578063a22cb46511610066578063a22cb4651461021d578063b88d4fde14610230578063c87b56dd14610243578063e985e9c51461025657600080fd5b806360316801146101dc5780636352211e146101ef57806370a082311461020257806395d89b411461021557600080fd5b806323b872dd116100d357806323b872dd14610182578063278c32de1461019557806330176e13146101b657806342842e0e146101c957600080fd5b806301ffc9a71461010557806306fdde031461012d578063081812fc14610142578063095ea7b31461016d575b600080fd5b610118610113366004610da3565b610269565b60405190151581526020015b60405180910390f35b6101356102bb565b6040516101249190610e17565b610155610150366004610e2a565b61034d565b6040516001600160a01b039091168152602001610124565b61018061017b366004610e5f565b610376565b005b610180610190366004610e89565b610385565b6101a86101a3366004610f71565b610415565b604051908152602001610124565b6101806101c4366004610fbf565b610458565b6101806101d7366004610e89565b610464565b6101356101ea366004610e2a565b610484565b6101556101fd366004610e2a565b610580565b6101a8610210366004610ff4565b61058b565b6101356105d3565b61018061022b36600461100f565b6105e2565b61018061023e36600461104b565b6105ed565b610135610251366004610e2a565b610604565b6101186102643660046110c7565b6106b5565b60006001600160e01b031982166380ac58cd60e01b148061029a57506001600160e01b03198216635b5e139f60e01b145b806102b557506301ffc9a760e01b6001600160e01b03198316145b92915050565b6060600080546102ca906110fa565b80601f01602080910402602001604051908101604052809291908181526020018280546102f6906110fa565b80156103435780601f1061031857610100808354040283529160200191610343565b820191906000526020600020905b81548152906001019060200180831161032657829003601f168201915b5050505050905090565b6000610358826106e3565b506000828152600460205260409020546001600160a01b03166102b5565b61038182823361071c565b5050565b6001600160a01b0382166103b457604051633250574960e11b8152600060048201526024015b60405180910390fd5b60006103c1838333610729565b9050836001600160a01b0316816001600160a01b03161461040f576040516364283d7b60e01b81526001600160a01b03808616600483015260248201849052821660448201526064016103ab565b50505050565b600680546000918261042683611134565b90915550506006546104388482610822565b600081815260086020526040902061045084826111a9565b509392505050565b600761038182826111a9565b61047f838383604051806020016040528060008152506105ed565b505050565b6000818152600260205260409020546060906001600160a01b03166104e25760405162461bcd60e51b8152602060048201526014602482015273151bdad95b88191bd95cc81b9bdd08195e1a5cdd60621b60448201526064016103ab565b600082815260086020526040902080546104fb906110fa565b80601f0160208091040260200160405190810160405280929190818152602001828054610527906110fa565b80156105745780601f1061054957610100808354040283529160200191610574565b820191906000526020600020905b81548152906001019060200180831161055757829003601f168201915b50505050509050919050565b60006102b5826106e3565b60006001600160a01b0382166105b7576040516322718ad960e21b8152600060048201526024016103ab565b506001600160a01b031660009081526003602052604090205490565b6060600180546102ca906110fa565b610381338383610887565b6105f8848484610385565b61040f84848484610926565b6000818152600260205260409020546060906001600160a01b03166106835760405162461bcd60e51b815260206004820152602f60248201527f4552433732314d657461646174613a2055524920717565727920666f72206e6f60448201526e3732bc34b9ba32b73a103a37b5b2b760891b60648201526084016103ab565b600761068e83610a4f565b60405160200161069f929190611269565b6040516020818303038152906040529050919050565b6001600160a01b03918216600090815260056020908152604080832093909416825291909152205460ff1690565b6000818152600260205260408120546001600160a01b0316806102b557604051637e27328960e01b8152600481018490526024016103ab565b61047f8383836001610ae2565b6000828152600260205260408120546001600160a01b039081169083161561075657610756818486610be8565b6001600160a01b0381161561079457610773600085600080610ae2565b6001600160a01b038116600090815260036020526040902080546000190190555b6001600160a01b038516156107c3576001600160a01b0385166000908152600360205260409020805460010190555b60008481526002602052604080822080546001600160a01b0319166001600160a01b0389811691821790925591518793918516917fddf252ad1be2c89b69c2b068fc378daa952ba7f163c4a11628f55a4df523b3ef91a4949350505050565b6001600160a01b03821661084c57604051633250574960e11b8152600060048201526024016103ab565b600061085a83836000610729565b90506001600160a01b0381161561047f576040516339e3563760e11b8152600060048201526024016103ab565b6001600160a01b0382166108b957604051630b61174360e31b81526001600160a01b03831660048201526024016103ab565b6001600160a01b03838116600081815260056020908152604080832094871680845294825291829020805460ff191686151590811790915591519182527f17307eab39ab6107e8899845ad3d59bd9653f200f220920489ca2b5937696c31910160405180910390a3505050565b6001600160a01b0383163b1561040f57604051630a85bd0160e11b81526001600160a01b0384169063150b7a02906109689033908890879087906004016112f0565b6020604051808303816000875af19250505080156109a3575060408051601f3d908101601f191682019092526109a09181019061132d565b60015b610a0c573d8080156109d1576040519150601f19603f3d011682016040523d82523d6000602084013e6109d6565b606091505b508051600003610a0457604051633250574960e11b81526001600160a01b03851660048201526024016103ab565b805181602001fd5b6001600160e01b03198116630a85bd0160e11b14610a4857604051633250574960e11b81526001600160a01b03851660048201526024016103ab565b5050505050565b60606000610a5c83610c4c565b600101905060008167ffffffffffffffff811115610a7c57610a7c610ec5565b6040519080825280601f01601f191660200182016040528015610aa6576020820181803683370190505b5090508181016020015b600019016f181899199a1a9b1b9c1cb0b131b232b360811b600a86061a8153600a8504945084610ab057509392505050565b8080610af657506001600160a01b03821615155b15610bb8576000610b06846106e3565b90506001600160a01b03831615801590610b325750826001600160a01b0316816001600160a01b031614155b8015610b455750610b4381846106b5565b155b15610b6e5760405163a9fbf51f60e01b81526001600160a01b03841660048201526024016103ab565b8115610bb65783856001600160a01b0316826001600160a01b03167f8c5be1e5ebec7d5bd14f71427d1e84f3dd0314c0f7b2291e5b200ac8c7c3b92560405160405180910390a45b505b5050600090815260046020526040902080546001600160a01b0319166001600160a01b0392909216919091179055565b610bf3838383610d24565b61047f576001600160a01b038316610c2157604051637e27328960e01b8152600481018290526024016103ab565b60405163177e802f60e01b81526001600160a01b0383166004820152602481018290526044016103ab565b60008072184f03e93ff9f4daa797ed6e38ed64bf6a1f0160401b8310610c8b5772184f03e93ff9f4daa797ed6e38ed64bf6a1f0160401b830492506040015b6d04ee2d6d415b85acef81000000008310610cb7576d04ee2d6d415b85acef8100000000830492506020015b662386f26fc100008310610cd557662386f26fc10000830492506010015b6305f5e1008310610ced576305f5e100830492506008015b6127108310610d0157612710830492506004015b60648310610d13576064830492506002015b600a83106102b55760010192915050565b60006001600160a01b03831615801590610d825750826001600160a01b0316846001600160a01b03161480610d5e5750610d5e84846106b5565b80610d8257506000828152600460205260409020546001600160a01b038481169116145b949350505050565b6001600160e01b031981168114610da057600080fd5b50565b600060208284031215610db557600080fd5b8135610dc081610d8a565b9392505050565b60005b83811015610de2578181015183820152602001610dca565b50506000910152565b60008151808452610e03816020860160208601610dc7565b601f01601f19169290920160200192915050565b602081526000610dc06020830184610deb565b600060208284031215610e3c57600080fd5b5035919050565b80356001600160a01b0381168114610e5a57600080fd5b919050565b60008060408385031215610e7257600080fd5b610e7b83610e43565b946020939093013593505050565b600080600060608486031215610e9e57600080fd5b610ea784610e43565b9250610eb560208501610e43565b9150604084013590509250925092565b634e487b7160e01b600052604160045260246000fd5b600067ffffffffffffffff80841115610ef657610ef6610ec5565b604051601f8501601f19908116603f01168101908282118183101715610f1e57610f1e610ec5565b81604052809350858152868686011115610f3757600080fd5b858560208301376000602087830101525050509392505050565b600082601f830112610f6257600080fd5b610dc083833560208501610edb565b60008060408385031215610f8457600080fd5b610f8d83610e43565b9150602083013567ffffffffffffffff811115610fa957600080fd5b610fb585828601610f51565b9150509250929050565b600060208284031215610fd157600080fd5b813567ffffffffffffffff811115610fe857600080fd5b610d8284828501610f51565b60006020828403121561100657600080fd5b610dc082610e43565b6000806040838503121561102257600080fd5b61102b83610e43565b91506020830135801515811461104057600080fd5b809150509250929050565b6000806000806080858703121561106157600080fd5b61106a85610e43565b935061107860208601610e43565b925060408501359150606085013567ffffffffffffffff81111561109b57600080fd5b8501601f810187136110ac57600080fd5b6110bb87823560208401610edb565b91505092959194509250565b600080604083850312156110da57600080fd5b6110e383610e43565b91506110f160208401610e43565b90509250929050565b600181811c9082168061110e57607f821691505b60208210810361112e57634e487b7160e01b600052602260045260246000fd5b50919050565b60006001820161115457634e487b7160e01b600052601160045260246000fd5b5060010190565b601f82111561047f57600081815260208120601f850160051c810160208610156111825750805b601f850160051c820191505b818110156111a15782815560010161118e565b505050505050565b815167ffffffffffffffff8111156111c3576111c3610ec5565b6111d7816111d184546110fa565b8461115b565b602080601f83116001811461120c57600084156111f45750858301515b600019600386901b1c1916600185901b1785556111a1565b600085815260208120601f198616915b8281101561123b5788860151825594840194600190910190840161121c565b50858210156112595787850151600019600388901b60f8161c191681555b5050505050600190811b01905550565b6000808454611277816110fa565b6001828116801561128f57600181146112a4576112d3565b60ff19841687528215158302870194506112d3565b8860005260208060002060005b858110156112ca5781548a8201529084019082016112b1565b50505082870194505b5050505083516112e7818360208801610dc7565b01949350505050565b6001600160a01b038581168252841660208201526040810183905260806060820181905260009061132390830184610deb565b9695505050505050565b60006020828403121561133f57600080fd5b8151610dc081610d8a56fea2646970667358221220026095adb1676b94db3cb25526bb28764608dd86a852b2839f8ea226efec85bf64736f6c63430008140033",
  "immutableReferences": {},
  "source": "// SPDX-License-Identifier: MIT\r\npragma solidity ^0.8.20;\r\n\r\nimport \"@openzeppelin/contracts/token/ERC721/ERC721.sol\";\r\nimport \"@openzeppelin/contracts/utils/Strings.sol\";\r\n\r\ncontract AttendanceNFT is ERC721 {\r\n    using Strings for uint256;\r\n\r\n    uint256 private _currentTokenId;\r\n    string private _baseTokenURI;\r\n\r\n    mapping(uint256 => string) private _tokenMetadata;\r\n\r\n    constructor() ERC721(\"AttendanceNFT\", \"ANFT\") {\r\n        _baseTokenURI = \"\"; // Default empty string\r\n    }\r\n\r\n    function mintAttendance(address recipient, string memory metadata) public returns (uint256) {\r\n        _currentTokenId++;\r\n        uint256 newItemId = _currentTokenId;\r\n        _mint(recipient, newItemId);\r\n        _tokenMetadata[newItemId] = metadata;\r\n        return newItemId;\r\n    }\r\n\r\n    function getTokenMetadata(uint256 tokenId) public view returns (string memory) {\r\n        require(_exists(tokenId), \"Token does not exist\");\r\n        return _tokenMetadata[tokenId];\r\n    }\r\n\r\n    function tokenURI(uint256 tokenId) public view virtual override returns (string memory) {\r\n        require(_exists(tokenId), \"ERC721Metadata: URI query for nonexistent token\");\r\n        return string(abi.encodePacked(_baseTokenURI, tokenId.toString()));\r\n    }\r\n\r\n    function _exists(uint256 tokenId) internal view returns (bool) {\r\n        return _ownerOf(tokenId) != address(0);\r\n    }\r\n\r\n    function setBaseTokenURI(string memory baseTokenURI) public {\r\n        _baseTokenURI = baseTokenURI;\r\n    }\r\n}",
  "sourcePath": "D:\\blockchain\\attendance-nft\\contracts\\AttendanceNFT.sol",
  "compiler": {
    "name": "solc",
    "version": "0.8.20+commit.a1b79de6.Emscripten.clang"
  },
  "schemaVersion": "3.4.16",
  "updatedAt": "2024-10-04T17:49:27.415Z",
  "networkType": "ethereum",
  "devdoc": {
    "errors": {
      "ERC721IncorrectOwner(address,uint256,address)": [
        {
          "details": "Indicates an error related to the ownership over a particular token. Used in transfers.",
          "params": {
            "owner": "Address of the current owner of a token.",
            "sender": "Address whose tokens are being transferred.",
            "tokenId": "Identifier number of a token."
          }
        }
      ],
      "ERC721InsufficientApproval(address,uint256)": [
        {
          "details": "Indicates a failure with the `operator`s approval. Used in transfers.",
          "params": {
            "operator": "Address that may be allowed to operate on tokens without being their owner.",
            "tokenId": "Identifier number of a token."
          }
        }
      ],
      "ERC721InvalidApprover(address)": [
        {
          "details": "Indicates a failure with the `approver` of a token to be approved. Used in approvals.",
          "params": {
            "approver": "Address initiating an approval operation."
          }
        }
      ],
      "ERC721InvalidOperator(address)": [
        {
          "details": "Indicates a failure with the `operator` to be approved. Used in approvals.",
          "params": {
            "operator": "Address that may be allowed to operate on tokens without being their owner."
          }
        }
      ],
      "ERC721InvalidOwner(address)": [
        {
          "details": "Indicates that an address can't be an owner. For example, `address(0)` is a forbidden owner in EIP-20. Used in balance queries.",
          "params": {
            "owner": "Address of the current owner of a token."
          }
        }
      ],
      "ERC721InvalidReceiver(address)": [
        {
          "details": "Indicates a failure with the token `receiver`. Used in transfers.",
          "params": {
            "receiver": "Address to which tokens are being transferred."
          }
        }
      ],
      "ERC721InvalidSender(address)": [
        {
          "details": "Indicates a failure with the token `sender`. Used in transfers.",
          "params": {
            "sender": "Address whose tokens are being transferred."
          }
        }
      ],
      "ERC721NonexistentToken(uint256)": [
        {
          "details": "Indicates a `tokenId` whose `owner` is the zero address.",
          "params": {
            "tokenId": "Identifier number of a token."
          }
        }
      ]
    },
    "events": {
      "Approval(address,address,uint256)": {
        "details": "Emitted when `owner` enables `approved` to manage the `tokenId` token."
      },
      "ApprovalForAll(address,address,bool)": {
        "details": "Emitted when `owner` enables or disables (`approved`) `operator` to manage all of its assets."
      },
      "Transfer(address,address,uint256)": {
        "details": "Emitted when `tokenId` token is transferred from `from` to `to`."
      }
    },
    "kind": "dev",
    "methods": {
      "approve(address,uint256)": {
        "details": "See {IERC721-approve}."
      },
      "balanceOf(address)": {
        "details": "See {IERC721-balanceOf}."
      },
      "getApproved(uint256)": {
        "details": "See {IERC721-getApproved}."
      },
      "isApprovedForAll(address,address)": {
        "details": "See {IERC721-isApprovedForAll}."
      },
      "name()": {
        "details": "See {IERC721Metadata-name}."
      },
      "ownerOf(uint256)": {
        "details": "See {IERC721-ownerOf}."
      },
      "safeTransferFrom(address,address,uint256)": {
        "details": "See {IERC721-safeTransferFrom}."
      },
      "safeTransferFrom(address,address,uint256,bytes)": {
        "details": "See {IERC721-safeTransferFrom}."
      },
      "setApprovalForAll(address,bool)": {
        "details": "See {IERC721-setApprovalForAll}."
      },
      "supportsInterface(bytes4)": {
        "details": "See {IERC165-supportsInterface}."
      },
      "symbol()": {
        "details": "See {IERC721Metadata-symbol}."
      },
      "tokenURI(uint256)": {
        "details": "See {IERC721Metadata-tokenURI}."
      },
      "transferFrom(address,address,uint256)": {
        "details": "See {IERC721-transferFrom}."
      }
    },
    "version": 1
  },
  "userdoc": {
    "kind": "user",
    "methods": {},
    "version": 1
  }
}