{
  "contractName": "AttendanceNFT",
  "abi": [
    {
      "inputs": [],
      "stateMutability": "nonpayable",
      "type": "constructor"
    },
    {
      "inputs": [
        {
          "internalType": "address",
          "name": "sender",
          "type": "address"
        },
        {
          "internalType": "uint256",
          "name": "tokenId",
          "type": "uint256"
        },
        {
          "internalType": "address",
          "name": "owner",
          "type": "address"
        }
      ],
      "name": "ERC721IncorrectOwner",
      "type": "error"
    },
    {
      "inputs": [
        {
          "internalType": "address",
          "name": "operator",
          "type": "address"
        },
        {
          "internalType": "uint256",
          "name": "tokenId",
          "type": "uint256"
        }
      ],
      "name": "ERC721InsufficientApproval",
      "type": "error"
    },
    {
      "inputs": [
        {
          "internalType": "address",
          "name": "approver",
          "type": "address"
        }
      ],
      "name": "ERC721InvalidApprover",
      "type": "error"
    },
    {
      "inputs": [
        {
          "internalType": "address",
          "name": "operator",
          "type": "address"
        }
      ],
      "name": "ERC721InvalidOperator",
      "type": "error"
    },
    {
      "inputs": [
        {
          "internalType": "address",
          "name": "owner",
          "type": "address"
        }
      ],
      "name": "ERC721InvalidOwner",
      "type": "error"
    },
    {
      "inputs": [
        {
          "internalType": "address",
          "name": "receiver",
          "type": "address"
        }
      ],
      "name": "ERC721InvalidReceiver",
      "type": "error"
    },
    {
      "inputs": [
        {
          "internalType": "address",
          "name": "sender",
          "type": "address"
        }
      ],
      "name": "ERC721InvalidSender",
      "type": "error"
    },
    {
      "inputs": [
        {
          "internalType": "uint256",
          "name": "tokenId",
          "type": "uint256"
        }
      ],
      "name": "ERC721NonexistentToken",
      "type": "error"
    },
    {
      "anonymous": false,
      "inputs": [
        {
          "indexed": true,
          "internalType": "address",
          "name": "owner",
          "type": "address"
        },
        {
          "indexed": true,
          "internalType": "address",
          "name": "approved",
          "type": "address"
        },
        {
          "indexed": true,
          "internalType": "uint256",
          "name": "tokenId",
          "type": "uint256"
        }
      ],
      "name": "Approval",
      "type": "event"
    },
    {
      "anonymous": false,
      "inputs": [
        {
          "indexed": true,
          "internalType": "address",
          "name": "owner",
          "type": "address"
        },
        {
          "indexed": true,
          "internalType": "address",
          "name": "operator",
          "type": "address"
        },
        {
          "indexed": false,
          "internalType": "bool",
          "name": "approved",
          "type": "bool"
        }
      ],
      "name": "ApprovalForAll",
      "type": "event"
    },
    {
      "anonymous": false,
      "inputs": [
        {
          "indexed": true,
          "internalType": "address",
          "name": "recipient",
          "type": "address"
        },
        {
          "indexed": false,
          "internalType": "uint256",
          "name": "tokenId",
          "type": "uint256"
        },
        {
          "indexed": false,
          "internalType": "string",
          "name": "metadata",
          "type": "string"
        }
      ],
      "name": "AttendanceMinted",
      "type": "event"
    },
    {
      "anonymous": false,
      "inputs": [
        {
          "indexed": true,
          "internalType": "address",
          "name": "from",
          "type": "address"
        },
        {
          "indexed": true,
          "internalType": "address",
          "name": "to",
          "type": "address"
        },
        {
          "indexed": true,
          "internalType": "uint256",
          "name": "tokenId",
          "type": "uint256"
        }
      ],
      "name": "Transfer",
      "type": "event"
    },
    {
      "inputs": [
        {
          "internalType": "address",
          "name": "to",
          "type": "address"
        },
        {
          "internalType": "uint256",
          "name": "tokenId",
          "type": "uint256"
        }
      ],
      "name": "approve",
      "outputs": [],
      "stateMutability": "nonpayable",
      "type": "function"
    },
    {
      "inputs": [
        {
          "internalType": "address",
          "name": "owner",
          "type": "address"
        }
      ],
      "name": "balanceOf",
      "outputs": [
        {
          "internalType": "uint256",
          "name": "",
          "type": "uint256"
        }
      ],
      "stateMutability": "view",
      "type": "function",
      "constant": true
    },
    {
      "inputs": [
        {
          "internalType": "uint256",
          "name": "tokenId",
          "type": "uint256"
        }
      ],
      "name": "getApproved",
      "outputs": [
        {
          "internalType": "address",
          "name": "",
          "type": "address"
        }
      ],
      "stateMutability": "view",
      "type": "function",
      "constant": true
    },
    {
      "inputs": [
        {
          "internalType": "address",
          "name": "owner",
          "type": "address"
        },
        {
          "internalType": "address",
          "name": "operator",
          "type": "address"
        }
      ],
      "name": "isApprovedForAll",
      "outputs": [
        {
          "internalType": "bool",
          "name": "",
          "type": "bool"
        }
      ],
      "stateMutability": "view",
      "type": "function",
      "constant": true
    },
    {
      "inputs": [],
      "name": "name",
      "outputs": [
        {
          "internalType": "string",
          "name": "",
          "type": "string"
        }
      ],
      "stateMutability": "view",
      "type": "function",
      "constant": true
    },
    {
      "inputs": [
        {
          "internalType": "uint256",
          "name": "tokenId",
          "type": "uint256"
        }
      ],
      "name": "ownerOf",
      "outputs": [
        {
          "internalType": "address",
          "name": "",
          "type": "address"
        }
      ],
      "stateMutability": "view",
      "type": "function",
      "constant": true
    },
    {
      "inputs": [
        {
          "internalType": "address",
          "name": "from",
          "type": "address"
        },
        {
          "internalType": "address",
          "name": "to",
          "type": "address"
        },
        {
          "internalType": "uint256",
          "name": "tokenId",
          "type": "uint256"
        }
      ],
      "name": "safeTransferFrom",
      "outputs": [],
      "stateMutability": "nonpayable",
      "type": "function"
    },
    {
      "inputs": [
        {
          "internalType": "address",
          "name": "from",
          "type": "address"
        },
        {
          "internalType": "address",
          "name": "to",
          "type": "address"
        },
        {
          "internalType": "uint256",
          "name": "tokenId",
          "type": "uint256"
        },
        {
          "internalType": "bytes",
          "name": "data",
          "type": "bytes"
        }
      ],
      "name": "safeTransferFrom",
      "outputs": [],
      "stateMutability": "nonpayable",
      "type": "function"
    },
    {
      "inputs": [
        {
          "internalType": "address",
          "name": "operator",
          "type": "address"
        },
        {
          "internalType": "bool",
          "name": "approved",
          "type": "bool"
        }
      ],
      "name": "setApprovalForAll",
      "outputs": [],
      "stateMutability": "nonpayable",
      "type": "function"
    },
    {
      "inputs": [
        {
          "internalType": "bytes4",
          "name": "interfaceId",
          "type": "bytes4"
        }
      ],
      "name": "supportsInterface",
      "outputs": [
        {
          "internalType": "bool",
          "name": "",
          "type": "bool"
        }
      ],
      "stateMutability": "view",
      "type": "function",
      "constant": true
    },
    {
      "inputs": [],
      "name": "symbol",
      "outputs": [
        {
          "internalType": "string",
          "name": "",
          "type": "string"
        }
      ],
      "stateMutability": "view",
      "type": "function",
      "constant": true
    },
    {
      "inputs": [
        {
          "internalType": "address",
          "name": "from",
          "type": "address"
        },
        {
          "internalType": "address",
          "name": "to",
          "type": "address"
        },
        {
          "internalType": "uint256",
          "name": "tokenId",
          "type": "uint256"
        }
      ],
      "name": "transferFrom",
      "outputs": [],
      "stateMutability": "nonpayable",
      "type": "function"
    },
    {
      "inputs": [
        {
          "internalType": "address",
          "name": "recipient",
          "type": "address"
        },
        {
          "internalType": "string",
          "name": "metadata",
          "type": "string"
        }
      ],
      "name": "mintAttendance",
      "outputs": [
        {
          "internalType": "uint256",
          "name": "",
          "type": "uint256"
        }
      ],
      "stateMutability": "nonpayable",
      "type": "function"
    },
    {
      "inputs": [
        {
          "internalType": "uint256",
          "name": "tokenId",
          "type": "uint256"
        }
      ],
      "name": "getTokenMetadata",
      "outputs": [
        {
          "internalType": "string",
          "name": "",
          "type": "string"
        }
      ],
      "stateMutability": "view",
      "type": "function",
      "constant": true
    },
    {
      "inputs": [
        {
          "internalType": "uint256",
          "name": "tokenId",
          "type": "uint256"
        }
      ],
      "name": "tokenURI",
      "outputs": [
        {
          "internalType": "string",
          "name": "",
          "type": "string"
        }
      ],
      "stateMutability": "view",
      "type": "function",
      "constant": true
    }
  ],
  "bytecode": "0x60806040523480156200001157600080fd5b506040518060400160405280600d81526020016c105d1d195b99185b98d9539195609a1b815250604051806040016040528060048152602001631053919560e21b815250816000908162000066919062000123565b50600162000075828262000123565b505050620001ef565b634e487b7160e01b600052604160045260246000fd5b600181811c90821680620000a957607f821691505b602082108103620000ca57634e487b7160e01b600052602260045260246000fd5b50919050565b601f8211156200011e57600081815260208120601f850160051c81016020861015620000f95750805b601f850160051c820191505b818110156200011a5782815560010162000105565b5050505b505050565b81516001600160401b038111156200013f576200013f6200007e565b620001578162000150845462000094565b84620000d0565b602080601f8311600181146200018f5760008415620001765750858301515b600019600386901b1c1916600185901b1785556200011a565b600085815260208120601f198616915b82811015620001c0578886015182559484019460019091019084016200019f565b5085821015620001df5787850151600019600388901b60f8161c191681555b5050505050600190811b01905550565b61112b80620001ff6000396000f3fe608060405234801561001057600080fd5b50600436106100f55760003560e01c80636031680111610097578063a22cb46511610066578063a22cb465146101ff578063b88d4fde14610212578063c87b56dd14610225578063e985e9c51461023857600080fd5b806360316801146101be5780636352211e146101d157806370a08231146101e457806395d89b41146101f757600080fd5b8063095ea7b3116100d3578063095ea7b31461016257806323b872dd14610177578063278c32de1461018a57806342842e0e146101ab57600080fd5b806301ffc9a7146100fa57806306fdde0314610122578063081812fc14610137575b600080fd5b61010d610108366004610c07565b61024b565b60405190151581526020015b60405180910390f35b61012a61029d565b6040516101199190610c71565b61014a610145366004610c84565b61032f565b6040516001600160a01b039091168152602001610119565b610175610170366004610cb9565b610358565b005b610175610185366004610ce3565b610367565b61019d610198366004610dab565b6103f7565b604051908152602001610119565b6101756101b9366004610ce3565b61047d565b61012a6101cc366004610c84565b61049d565b61014a6101df366004610c84565b610599565b61019d6101f2366004610e0d565b6105a4565b61012a6105ec565b61017561020d366004610e28565b6105fb565b610175610220366004610e64565b610606565b61012a610233366004610c84565b61061d565b61010d610246366004610ee0565b610684565b60006001600160e01b031982166380ac58cd60e01b148061027c57506001600160e01b03198216635b5e139f60e01b145b8061029757506301ffc9a760e01b6001600160e01b03198316145b92915050565b6060600080546102ac90610f13565b80601f01602080910402602001604051908101604052809291908181526020018280546102d890610f13565b80156103255780601f106102fa57610100808354040283529160200191610325565b820191906000526020600020905b81548152906001019060200180831161030857829003601f168201915b5050505050905090565b600061033a826106b2565b506000828152600460205260409020546001600160a01b0316610297565b6103638282336106eb565b5050565b6001600160a01b03821661039657604051633250574960e11b8152600060048201526024015b60405180910390fd5b60006103a38383336106f8565b9050836001600160a01b0316816001600160a01b0316146103f1576040516364283d7b60e01b81526001600160a01b038086166004830152602482018490528216604482015260640161038d565b50505050565b600680546000918261040883610f4d565b909155505060065461041a84826107f1565b60008181526007602052604090206104328482610fc2565b50836001600160a01b03167f9cc58cd9de4c207bc33a561f774552ecef14dde35f27dc990b8bc56059f5a5b2828560405161046e929190611082565b60405180910390a29392505050565b61049883838360405180602001604052806000815250610606565b505050565b6000818152600260205260409020546060906001600160a01b03166104fb5760405162461bcd60e51b8152602060048201526014602482015273151bdad95b88191bd95cc81b9bdd08195e1a5cdd60621b604482015260640161038d565b6000828152600760205260409020805461051490610f13565b80601f016020809104026020016040519081016040528092919081815260200182805461054090610f13565b801561058d5780601f106105625761010080835404028352916020019161058d565b820191906000526020600020905b81548152906001019060200180831161057057829003601f168201915b50505050509050919050565b6000610297826106b2565b60006001600160a01b0382166105d0576040516322718ad960e21b81526000600482015260240161038d565b506001600160a01b031660009081526003602052604090205490565b6060600180546102ac90610f13565b610363338383610856565b610611848484610367565b6103f1848484846108f5565b6000818152600260205260409020546060906001600160a01b03166104fb5760405162461bcd60e51b815260206004820152601860248201527f4552433732313a20696e76616c696420746f6b656e2049440000000000000000604482015260640161038d565b6001600160a01b03918216600090815260056020908152604080832093909416825291909152205460ff1690565b6000818152600260205260408120546001600160a01b03168061029757604051637e27328960e01b81526004810184905260240161038d565b6104988383836001610a1e565b6000828152600260205260408120546001600160a01b039081169083161561072557610725818486610b24565b6001600160a01b0381161561076357610742600085600080610a1e565b6001600160a01b038116600090815260036020526040902080546000190190555b6001600160a01b03851615610792576001600160a01b0385166000908152600360205260409020805460010190555b60008481526002602052604080822080546001600160a01b0319166001600160a01b0389811691821790925591518793918516917fddf252ad1be2c89b69c2b068fc378daa952ba7f163c4a11628f55a4df523b3ef91a4949350505050565b6001600160a01b03821661081b57604051633250574960e11b81526000600482015260240161038d565b6000610829838360006106f8565b90506001600160a01b03811615610498576040516339e3563760e11b81526000600482015260240161038d565b6001600160a01b03821661088857604051630b61174360e31b81526001600160a01b038316600482015260240161038d565b6001600160a01b03838116600081815260056020908152604080832094871680845294825291829020805460ff191686151590811790915591519182527f17307eab39ab6107e8899845ad3d59bd9653f200f220920489ca2b5937696c31910160405180910390a3505050565b6001600160a01b0383163b156103f157604051630a85bd0160e11b81526001600160a01b0384169063150b7a029061093790339088908790879060040161109b565b6020604051808303816000875af1925050508015610972575060408051601f3d908101601f1916820190925261096f918101906110d8565b60015b6109db573d8080156109a0576040519150601f19603f3d011682016040523d82523d6000602084013e6109a5565b606091505b5080516000036109d357604051633250574960e11b81526001600160a01b038516600482015260240161038d565b805181602001fd5b6001600160e01b03198116630a85bd0160e11b14610a1757604051633250574960e11b81526001600160a01b038516600482015260240161038d565b5050505050565b8080610a3257506001600160a01b03821615155b15610af4576000610a42846106b2565b90506001600160a01b03831615801590610a6e5750826001600160a01b0316816001600160a01b031614155b8015610a815750610a7f8184610684565b155b15610aaa5760405163a9fbf51f60e01b81526001600160a01b038416600482015260240161038d565b8115610af25783856001600160a01b0316826001600160a01b03167f8c5be1e5ebec7d5bd14f71427d1e84f3dd0314c0f7b2291e5b200ac8c7c3b92560405160405180910390a45b505b5050600090815260046020526040902080546001600160a01b0319166001600160a01b0392909216919091179055565b610b2f838383610b88565b610498576001600160a01b038316610b5d57604051637e27328960e01b81526004810182905260240161038d565b60405163177e802f60e01b81526001600160a01b03831660048201526024810182905260440161038d565b60006001600160a01b03831615801590610be65750826001600160a01b0316846001600160a01b03161480610bc25750610bc28484610684565b80610be657506000828152600460205260409020546001600160a01b038481169116145b949350505050565b6001600160e01b031981168114610c0457600080fd5b50565b600060208284031215610c1957600080fd5b8135610c2481610bee565b9392505050565b6000815180845260005b81811015610c5157602081850181015186830182015201610c35565b506000602082860101526020601f19601f83011685010191505092915050565b602081526000610c246020830184610c2b565b600060208284031215610c9657600080fd5b5035919050565b80356001600160a01b0381168114610cb457600080fd5b919050565b60008060408385031215610ccc57600080fd5b610cd583610c9d565b946020939093013593505050565b600080600060608486031215610cf857600080fd5b610d0184610c9d565b9250610d0f60208501610c9d565b9150604084013590509250925092565b634e487b7160e01b600052604160045260246000fd5b600067ffffffffffffffff80841115610d5057610d50610d1f565b604051601f8501601f19908116603f01168101908282118183101715610d7857610d78610d1f565b81604052809350858152868686011115610d9157600080fd5b858560208301376000602087830101525050509392505050565b60008060408385031215610dbe57600080fd5b610dc783610c9d565b9150602083013567ffffffffffffffff811115610de357600080fd5b8301601f81018513610df457600080fd5b610e0385823560208401610d35565b9150509250929050565b600060208284031215610e1f57600080fd5b610c2482610c9d565b60008060408385031215610e3b57600080fd5b610e4483610c9d565b915060208301358015158114610e5957600080fd5b809150509250929050565b60008060008060808587031215610e7a57600080fd5b610e8385610c9d565b9350610e9160208601610c9d565b925060408501359150606085013567ffffffffffffffff811115610eb457600080fd5b8501601f81018713610ec557600080fd5b610ed487823560208401610d35565b91505092959194509250565b60008060408385031215610ef357600080fd5b610efc83610c9d565b9150610f0a60208401610c9d565b90509250929050565b600181811c90821680610f2757607f821691505b602082108103610f4757634e487b7160e01b600052602260045260246000fd5b50919050565b600060018201610f6d57634e487b7160e01b600052601160045260246000fd5b5060010190565b601f82111561049857600081815260208120601f850160051c81016020861015610f9b5750805b601f850160051c820191505b81811015610fba57828155600101610fa7565b505050505050565b815167ffffffffffffffff811115610fdc57610fdc610d1f565b610ff081610fea8454610f13565b84610f74565b602080601f831160018114611025576000841561100d5750858301515b600019600386901b1c1916600185901b178555610fba565b600085815260208120601f198616915b8281101561105457888601518255948401946001909101908401611035565b50858210156110725787850151600019600388901b60f8161c191681555b5050505050600190811b01905550565b828152604060208201526000610be66040830184610c2b565b6001600160a01b03858116825284166020820152604081018390526080606082018190526000906110ce90830184610c2b565b9695505050505050565b6000602082840312156110ea57600080fd5b8151610c2481610bee56fea2646970667358221220c365c3c7732c15d0a51f6775dbd84e0c7374cf439304ca451de4ada1edd7d88964736f6c63430008140033",
  "immutableReferences": {},
  "source": "// SPDX-License-Identifier: MIT\r\npragma solidity ^0.8.20;\r\n\r\nimport \"@openzeppelin/contracts/token/ERC721/ERC721.sol\";\r\n\r\ncontract AttendanceNFT is ERC721 {\r\n    uint256 private _currentTokenId;\r\n\r\n    mapping(uint256 => string) private _tokenMetadata;\r\n\r\n    event AttendanceMinted(address indexed recipient, uint256 tokenId, string metadata);\r\n\r\n    constructor() ERC721(\"AttendanceNFT\", \"ANFT\") {}\r\n\r\n    function mintAttendance(address recipient, string memory metadata) public returns (uint256) {\r\n        _currentTokenId++;\r\n        uint256 newItemId = _currentTokenId;\r\n        _mint(recipient, newItemId);\r\n        _tokenMetadata[newItemId] = metadata;\r\n        emit AttendanceMinted(recipient, newItemId, metadata);\r\n        return newItemId;\r\n    }\r\n\r\n    function getTokenMetadata(uint256 tokenId) public view returns (string memory) {\r\n        require(_ownerOf(tokenId) != address(0), \"Token does not exist\");\r\n        return _tokenMetadata[tokenId];\r\n    }\r\n\r\n    function tokenURI(uint256 tokenId) public view virtual override returns (string memory) {\r\n        require(_ownerOf(tokenId) != address(0), \"ERC721: invalid token ID\");\r\n        return _tokenMetadata[tokenId];\r\n    }\r\n}",
  "sourcePath": "D:\\blockchain\\attendance-nft\\contracts\\AttendanceNFT.sol",
  "compiler": {
    "name": "solc",
    "version": "0.8.20+commit.a1b79de6.Emscripten.clang"
  },
  "schemaVersion": "3.4.16",
  "updatedAt": "2024-10-02T16:49:06.594Z",
  "networkType": "ethereum",
  "devdoc": {
    "errors": {
      "ERC721IncorrectOwner(address,uint256,address)": [
        {
          "details": "Indicates an error related to the ownership over a particular token. Used in transfers.",
          "params": {
            "owner": "Address of the current owner of a token.",
            "sender": "Address whose tokens are being transferred.",
            "tokenId": "Identifier number of a token."
          }
        }
      ],
      "ERC721InsufficientApproval(address,uint256)": [
        {
          "details": "Indicates a failure with the `operator`s approval. Used in transfers.",
          "params": {
            "operator": "Address that may be allowed to operate on tokens without being their owner.",
            "tokenId": "Identifier number of a token."
          }
        }
      ],
      "ERC721InvalidApprover(address)": [
        {
          "details": "Indicates a failure with the `approver` of a token to be approved. Used in approvals.",
          "params": {
            "approver": "Address initiating an approval operation."
          }
        }
      ],
      "ERC721InvalidOperator(address)": [
        {
          "details": "Indicates a failure with the `operator` to be approved. Used in approvals.",
          "params": {
            "operator": "Address that may be allowed to operate on tokens without being their owner."
          }
        }
      ],
      "ERC721InvalidOwner(address)": [
        {
          "details": "Indicates that an address can't be an owner. For example, `address(0)` is a forbidden owner in EIP-20. Used in balance queries.",
          "params": {
            "owner": "Address of the current owner of a token."
          }
        }
      ],
      "ERC721InvalidReceiver(address)": [
        {
          "details": "Indicates a failure with the token `receiver`. Used in transfers.",
          "params": {
            "receiver": "Address to which tokens are being transferred."
          }
        }
      ],
      "ERC721InvalidSender(address)": [
        {
          "details": "Indicates a failure with the token `sender`. Used in transfers.",
          "params": {
            "sender": "Address whose tokens are being transferred."
          }
        }
      ],
      "ERC721NonexistentToken(uint256)": [
        {
          "details": "Indicates a `tokenId` whose `owner` is the zero address.",
          "params": {
            "tokenId": "Identifier number of a token."
          }
        }
      ]
    },
    "events": {
      "Approval(address,address,uint256)": {
        "details": "Emitted when `owner` enables `approved` to manage the `tokenId` token."
      },
      "ApprovalForAll(address,address,bool)": {
        "details": "Emitted when `owner` enables or disables (`approved`) `operator` to manage all of its assets."
      },
      "Transfer(address,address,uint256)": {
        "details": "Emitted when `tokenId` token is transferred from `from` to `to`."
      }
    },
    "kind": "dev",
    "methods": {
      "approve(address,uint256)": {
        "details": "See {IERC721-approve}."
      },
      "balanceOf(address)": {
        "details": "See {IERC721-balanceOf}."
      },
      "getApproved(uint256)": {
        "details": "See {IERC721-getApproved}."
      },
      "isApprovedForAll(address,address)": {
        "details": "See {IERC721-isApprovedForAll}."
      },
      "name()": {
        "details": "See {IERC721Metadata-name}."
      },
      "ownerOf(uint256)": {
        "details": "See {IERC721-ownerOf}."
      },
      "safeTransferFrom(address,address,uint256)": {
        "details": "See {IERC721-safeTransferFrom}."
      },
      "safeTransferFrom(address,address,uint256,bytes)": {
        "details": "See {IERC721-safeTransferFrom}."
      },
      "setApprovalForAll(address,bool)": {
        "details": "See {IERC721-setApprovalForAll}."
      },
      "supportsInterface(bytes4)": {
        "details": "See {IERC165-supportsInterface}."
      },
      "symbol()": {
        "details": "See {IERC721Metadata-symbol}."
      },
      "tokenURI(uint256)": {
        "details": "See {IERC721Metadata-tokenURI}."
      },
      "transferFrom(address,address,uint256)": {
        "details": "See {IERC721-transferFrom}."
      }
    },
    "version": 1
  },
  "userdoc": {
    "kind": "user",
    "methods": {},
    "version": 1
  }
}